:020000040800F2
:100000006878002029030008A15600088D4D0008DB
:100010009D5600081D0F00085D94000800000000B8
:10002000000000000000000000000000690200085D
:100030007F11000800000000C5020008816200086E
:100040004303000843030008430300084303000878
:100050004303000843030008430300084303000868
:10006000430300084303000881110008430300080C
:100070004510000843030008430300084303000839
:10008000430300084303000843030008310F00083E
:10009000210F000843030008430300088B110008E8
:1000A0004303000843030008430300084303000818
:1000B0004303000843030008430300084303000808
:1000C00043030008430300084303000843030008F8
:1000D00043030008D96A000843030008E96A0008DE
:1000E00043030008430300084303000843030008D8
:1000F00043030008430300084303000843030008C8
:1001000043030008430300084303000843030008B7
:1001100043030008430300085D630008430300082D
:100120004303000843030008551000086510000849
:10013000430300084303000843030008510F00086D
:10014000410F00084303000843030008A5560008B8
:100150004303000843030008430300084303000867
:100160004303000843030008430300084303000857
:100170004303000843030008430300080000000095
:10018000430300084303000800F002F800F05CF8A5
:100190000AA090E8000C82448344AAF10107DA45E2
:1001A00001D100F051F8AFF2090EBAE80F0013F0D8
:1001B000010F18BFFB1A43F00103184780D8000055
:1001C000A0D800000A444FF0000C10F8013B13F0D7
:1001D000070408BF10F8014B1D1108BF10F8015BA0
:1001E000641E05D010F8016B641E01F8016BF9D193
:1001F00013F0080F1EBF10F8014BAD1C0C1B09D1EA
:100200006D1E58BF01F801CBFAD505E014F8016B5B
:1002100001F8016B6D1EF9D59142D6D370470000ED
:100220000023002400250026103A28BF78C1FBD8FF
:10023000520728BF30C148BF0B6070471FB50CF094
:1002400061FD1FBD10B510BD00F002FA1146FFF7A9
:10025000F5FF0AF003FB00F020FA03B4FFF7F2FF0A
:1002600003BC00F085FA00002C4B19680868B0E860
:10027000F04F80F30988BFF36F8F4FF0000080F3D9
:10028000118870470000000008480068006880F38B
:1002900008884FF0000080F3148862B661B6BFF39F
:1002A0004F8FBFF36F8F00DF00BF00BF08ED00E08E
:1002B000DFF80C00016841F470010160704700BF75
:1002C00088ED00E0EFF30980BFF36F8F134B1A68DE
:1002D0001EF0100F08BF20ED108A20E9F04F1060CB
:1002E00009B44FF0500080F31188BFF34F8FBFF374
:1002F0006F8F0BF08BF94FF0000080F3118809BC71
:1003000019680868B0E8F04F1EF0100F08BFB0EC95
:10031000108A80F30988BFF36F8F7047D4000020E4
:10032000EFF30580704700000948804709480047FF
:10033000FEE7FEE7FEE7FEE7FEE7FEE7FEE7FEE795
:10034000FEE7FEE704480549054A064B70470000F2
:10035000496300088901000868720020687800205D
:1003600068740020687400209FED1A1AF5EE000AE8
:1003700040EE010ABDEEE00AF5EEC00A10EE100AEA
:10038000F1EE10FA38BF401E00EE100A1349F7EEE6
:10039000001AB8EEC00A30EEC00ADFED0F0A20EEF8
:1003A000200AFCEEC00A10EE900AC0F3080000EE2E
:1003B000900A01EB8000F8EE600A90ED011A70EEF1
:1003C000600A90ED000A71EEE01A21EE800A00EE5C
:1003D000810A704783F9223E0000004414D20008CD
:1003E000DFED190AB5EEC00A60EE200ABDEEE01A94
:1003F00011EE100AF1EE10FA38BF401E00EE100A9E
:100400001349F7EE001AB8EEC00A30EEC00ADFED6D
:100410000F0A60EE200ABCEEE00A10EE100AC0F3EC
:10042000080000EE100A01EB8000B8EE400A90EDE3
:10043000011A70EEC00A90ED000A71EEE01A21EE8A
:10044000800A00EE810A704783F9223E00000044D2
:1004500014D2000853EA020C00F069802DE9F04B39
:100460004FF00006002B1FBFB3FA83F503FA05F423
:1004700024FA05F65E4012BF1643B2FA82F502FA7C
:1004800005F4C5F120051EBF22FA05FC44EA0C0460
:10049000203556EA044C4FEA144418BF641C4FF050
:1004A00000084FF00009904271EB030C39D300298A
:1004B00019BFB1FA81F701FA07F6B0FA80F700FA2E
:1004C00007F6C7F120071EBF20FA07FC46EA0C0614
:1004D0002037B6FBF4FCA7EB0507103F07F01F0B16
:1004E000CBF120060CFA0BFB2CFA06F644BFB34600
:1004F0000026202FA4BF5E464FF0000B5BEA060CDF
:1005000008BF4FF0010B19EB0B09ABFB027C48EB6A
:100510000608C01B06FB02CC0BFB03CC71EB0C01E5
:10052000C1E70B46024641464846BDE8F08B13B58D
:100530004FF000004FF00001AFF30080BDE81C4019
:10054000704710B5203AC0F00B80B1E81850203A3F
:10055000A0E81850B1E81850A0E81850BFF4F5AF63
:100560005FEA027C24BFB1E81850A0E8185044BFED
:1005700018C918C0BDE810405FEA827C24BF51F85A
:10058000043B40F8043B08BF7047D20728BF31F84E
:10059000023B48BF11F8012B28BF20F8023B48BF9F
:1005A00000F8012B70474FF0000200B51346944647
:1005B0009646203922BFA0E80C50A0E80C50B1F1BB
:1005C0002001BFF4F7AF090728BFA0E80C5048BFCF
:1005D0000CC05DF804EB890028BF40F8042B08BF6D
:1005E000704748BF20F8022B11F0804F18BF00F869
:1005F000012B704770477047704710B500F008F83E
:10060000006810BD10B5044600F002F8046010BD8B
:1006100000487047087200201FB584B000200A9C73
:1006200006AB04AA02A90094AFF3008018B1DDE97B
:10063000020108B010BD0348204000F037F8002048
:100640000146F6E70000207C004870470872002051
:100650007546FFF7F9FFAE4605006946534620F0A0
:100660000700854618B020B5FFF76CFEBDE82040B6
:100670004FF000064FF000074FF000084FF0000B5E
:1006800021F00701AC46ACE8C009ACE8C009ACE811
:10069000C009ACE8C0098D46704710B50446AFF3F9
:1006A00000802046BDE81040FFF7D7BD10B500F030
:1006B00009F8BDE81040AFF30080002801D000F039
:1006C00057B8704710B5022803D0410103D50DA1DA
:1006D00012E0002010BD010101D50FA10CE0C10006
:1006E00001D511A108E0810001D512A104E040006C
:1006F00001D513A100E0002115A000F03FF8012072
:1007000010BD0000496E76616C6964204F7065729F
:100710006174696F6E000000446976696465204207
:1007200079205A65726F00004F766572666C6F773C
:1007300000000000556E646572666C6F7700000003
:10074000496E657861637420526573756C7400003E
:100750005349474650453A2041726974686D657443
:10076000696320657863657074696F6E3A20000074
:1007700001491820ABBEFEE72600020070B5054611
:100780000C460A2000E06D1C09F096F835B1287877
:100790000028F8D102E0641C09F08EF814B120782A
:1007A0000028F8D1BDE870400A2009F085B87047EC
:1007B00010B52DED028BB0EE408AB0EE480A08F07D
:1007C0009DFEBDEC028B10BD10B52DED028BB0EE81
:1007D000408AF0EE608AF0EE680AB0EE480A08F04F
:1007E00023FFBDEC028B10BD10B52DED028BB0EEDA
:1007F000408AB0EE480AFFF7B7FDBDEC028B10BD92
:10080000F0EE400AF5EEC00AF1EE10FA02DDB0EEAD
:10081000600A7047B1EE600AFBE7000018B19FED77
:10082000020A80ED000A70470000000070470000D7
:1008300070B52DED0C8B84B006460C4615469FED29
:10084000990AF0EE408A9FED970AB0EE409A9FED2C
:10085000950AF0EE40BA9FED930AF0EE409A9FEDB4
:10086000910AB0EE40AA0EB104B11DB904B0BDECBE
:100870000C8B70BD8C48FFF7D1FF8C48FFF7D6FF7B
:100880008A48D0ED000A9FED8A1A60EE810AB0EE28
:10089000600A00F039F9F0EE408A28EEA80AF0EE7E
:1008A000408A8248D0ED000AB0EE001A60EE810A5C
:1008B0009FED7F1A60EE810AB0EE600A00F024F925
:1008C000B0EE409A29EE090AB0EE409ADFED790ABF
:1008D000B7EE000A00EEA80ADFED770A00EEC90ABB
:1008E000DFED760A20EE200A754880ED000A6E489A
:1008F00090ED000ADFED730A80EE201AB7EE000AD1
:1009000031EE000A20EE000A6D48D0ED000A80EEBC
:10091000801A6D4880ED001A94ED000AB5EEC00A09
:10092000F1EE10FA0DD194ED010AB5EEC00AF1EE28
:1009300010FA06D194ED020AB5EEC00AF1EE10FAF3
:1009400046D09FED580AB0EE408A002001900290F8
:100950000390D4ED000A60EEA00A94ED011AD4EDE4
:10096000011A41EE210A94ED021AD4ED021A41EE69
:10097000210AB0EE600A00F0A9F8B0EE408A94EDCA
:10098000000A20EE080A8DED010A94ED010A20EE1E
:10099000080A8DED020A94ED020A20EE080A8DED98
:1009A000030ADDED010AF1EE600AB0EE600AFFF71E
:1009B000FFFEF0EE409A9DED031AF0EE410A9DED28
:1009C000021AB0EE410AFFF7FFFEB0EE40AA07E0C0
:1009D0009FED340AF0EE409A9FED320AB0EE40AA45
:1009E00095ED000AB5EEC00AF1EE10FA0DD195EDC5
:1009F000010AB5EEC00AF1EE10FA06D195ED020A31
:100A0000B5EEC00AF1EE10FA3CD0B0EE690A00F083
:100A10007BF8B0EE408AB0EE690AFFF7E5FEB0EE73
:100A200040DAB0EE4A0A00F06FF8F0EE40AAB0EEFD
:100A30004A0AFFF7D9FEB0EE40BA28EE2A0AD5EDF1
:100A4000010A20EE200AD5ED000A0DEE200A68EE1C
:100A50000B0A95ED021A00EE810AB0EE40CA95ED40
:100A6000010A20EE0B0AD5ED020A0AEEE00AF0EECA
:100A700040CAF0EE6C0AB0EE4C0AFFF7A5FEF0EEAD
:100A800040BA03E09FED070AF0EE40BAB0EE4A1A12
:100A9000F0EE690AB0EE6B0A304609F0BDF800BF0F
:100AA000E4E60000000000007C0A0020800A00202C
:100AB00035FA8E3CC1BFAD3B9DF8C5362F7C1C413D
:100AC000840A0020506CC24A880A0020F0EE400AD6
:100AD000F6EE001A60EEA11AB0EE611AB0EE600AEE
:100AE00010EE100A0749A1EB600000EE100A21EE9B
:100AF000002AF7EE081A42EE401A61EE801AB0EEB4
:100B0000610A7047DF59375F10B52DED028BB0EEEB
:100B1000408AB0EE480AFFF763FCBDEC028B10BDC3
:100B20002DE9F0412DED028B9AB00546B0EE408ADA
:100B30000E4617469846002017901890199014906A
:100B4000159016904DB146B13FB1B8F1000F04D0E9
:100B5000B5EEC08AF1EE10FA05D100201AB0BDEC56
:100B6000028BBDE8F08196ED000A8DED170A96ED37
:100B7000010A8DED180A96ED020A8DED190A97ED1E
:100B8000000A8DED140A97ED010A8DED150A97ED17
:100B9000020A8DED160A17AA14A9284608F08EFE3F
:100BA000402104A8FFF7FFFC002000900190029074
:100BB0000390002417A904A80AF059FB00BF30E0F5
:100BC00004A800EB041090ED000AD5ED000A20EE19
:100BD000200A04A800EB0410D0ED010A95ED011ADB
:100BE00000EE810A04A800EB0410D0ED020A95ED96
:100BF000021A00EE810A04A800EB0410D0ED030AEB
:100C000095ED031A00EE810A20EE080AF0EE000AC4
:100C100080EE201A684600EB840080ED001A601C0C
:100C2000C4B2042CCCDB002410E005EB840090ED72
:100C3000000A684600EB8400D0ED000A30EE200A7E
:100C400005EB840080ED000A601CC4B2042CECDBD0
:100C500028460AF0ABFA012080E7000010B5012217
:100C60001021024801F03CFE10BD000000000240CF
:100C700010B500221021024801F032FE10BD000024
:100C8000000002407047000010B5012211460248E2
:100C900001F026FE10BD00000004024010B5002245
:100CA0000121024801F01CFE10BD000000040240BA
:100CB000704710B5044603E04FF47A7000F006F870
:100CC000201EA4F101018CB2F6D110BD70B503460F
:100CD00000BF00BF0020002200BF4FF0E026756972
:100CE000A82603FB06F44FF0E026B16910E04FF0B0
:100CF000E026B06988420BD0884202D20E1A3244F4
:100D000002E02E1A0E4432440146A24200D300E013
:100D1000EDE700BF70BD10B50024FFF7B3FFFFF78C
:100D2000C7FF09F02FF8044309F0C0F80443204638
:100D300010BD00007CB50546002000900190FFF733
:100D400097FF922000F0D0F806226946122000F0AA
:100D5000ABF8FFF783FF9DF80100000200B29DF899
:100D6000001040EA010400EE104AB8EEC00A4C48F8
:100D7000D0ED000A20EE200A85ED010A9DF803005F
:100D8000000200B29DF8021040EA010400EE104A91
:100D9000B8EEC00A4248D0ED000A20EE200A85EDE8
:100DA000020A9DF80500000200B29DF8041040EA16
:100DB000010400EE104AB8EEC00A3948D0ED000A2E
:100DC00020EE200A85ED030AFFF768FF0822694636
:100DD000002000F069F8FFF757FF9DF800000F288A
:100DE00038D19DF80300000200B29DF8021040EADD
:100DF000010400EE104AB8EEC00A2A48D0ED000AFD
:100E000020EE200A85ED050A9DF80500000200B2DB
:100E10009DF8041040EA010400EE104AB8EEC00A42
:100E20002048D0ED000A20EE200A85ED060A9DF844
:100E30000700000200B29DF8061040EA010400EE2F
:100E4000104AB8EEC00A1748D0ED000A20EE200A7A
:100E500085ED070AFFF70CFFA22000F045F80222FB
:100E60006946222000F020F8FFF7F8FE9DF8000008
:100E7000C0009DF8011040EA6114B4F5806F02DBF8
:100E8000A4F5006004B200EE104AF8EEC00AB4EE19
:100E9000001AB3EE070A00EE810A85ED040A7CBD54
:100EA000540000205800002070B506460C46154638
:100EB00046F0800000F018F806E0552000F014F825
:100EC0002070641C681EC5B2002DF6D170BD70B5CF
:100ED00004460D4644F0800000F006F8552000F06E
:100EE00003F8287070BD000001B582B04FF47A702D
:100EF000012301AA02A90090024803F04DF99DF8D0
:100F000004000EBDAC0F002070B505460C46284607
:100F1000FFF7EAFF2046FFF7E7FF70BD00BFFEE7DF
:100F200010B5024800F097FD10BD0000440F0020EE
:100F300010B5024800F08FFD10BD0000440F0020E6
:100F400010B5024800F087FD10BD00006C0F0020B6
:100F500010B5024800F07FFD10BD00006C0F0020AE
:100F60002DE9F04106460C4617461D460F48046021
:100F700000200E4948608860C8600846056101236A
:100F80003A46304600F066FB60B102233A46074914
:100F9000304600F05FFB28B104233A46034930464F
:100FA00000F058FB0020BDE8F0810000940F002005
:100FB0000346042B15D007DC7BB1012B0ED0022B8E
:100FC0000DD0032B12D10BE0202B0BD0212B0AD0FC
:100FD000222B09D0232B09D107E008E007E006E027
:100FE00005E004E003E002E001E000E000BF00BF34
:100FF000002070470020704710B5002204490548C2
:1010000006F093F80449034806F080F8002010BD6C
:101010000463002028560020045B002070B50446BD
:101020000D462146034806F071F8024806F03AF8EA
:10103000002070BD2856002010B503460C46002144
:10104000084610BD10B5024801F08AF810BD000036
:101050009C11002010B5024801F082F810BD00007C
:101060000410002010B5024801F07AF810BD00000D
:10107000641000200146087810381823B0FBF3F202
:101080000848805CC865032A05D908686FF3090021
:10109000001D886503E008686FF309008865886DA6
:1010A00070470000D8CF0008014600208A6A8B698B
:1010B000CBB932B1012A0DD0022A03D0032A10D1B4
:1010C0000EE000BFCB6A03F08073B3F1807F00D1E4
:1010D000012007E0CB6AB3F1C07F00D1012001E01D
:1010E00000E000BF34E08B69B3F5005F1AD132B184
:1010F000012A07D0022A03D0032A11D10AE000BF37
:1011000001200EE0CB6A03F08073B3F1807F00D141
:10111000012006E0CB6AB3F1C07F00D1012000E0DE
:1011200000BF15E032B1012A05D0022A04D0032AFB
:101130000CD103E000BF00BF012008E0CB6A03F040
:101140008073B3F1807F00D1012000E000BF00BFB9
:10115000704730B50468246824F4802405682C6046
:10116000046863608468402C04D10468A260046849
:10117000E16003E00468A1600468E26030BD70478C
:1011800010B5102001F0A4FA10BD10B5202001F018
:101190009FFA10BD72B600BFFEE7000010B5002236
:1011A00001B909E0012901D10A0205E0022901D1B2
:1011B0000A0201E04FF440720E4B1B6823F44073A7
:1011C0000C4C236023461B681343236023461B6893
:1011D00023F07803236023461B68022444EAC004FA
:1011E0002343044C236023461B6843F4803323606D
:1011F00010BD0000103C02401C48006800F4007064
:10120000B0B11A48006820F400701849086000BFA7
:101210000846006840F4006008600846006820F452
:101220000060086000BF0846006840F40070086075
:101230000E48006800F48060B0B10C48006820F4EB
:1012400080600A49086000BF0846006840F480508A
:1012500008600846006820F48050086000BF084617
:10126000006840F48060086070470000003C024065
:101270000A4A126822F44072084B1A601A46126831
:1012800042F004021A601A4612684FF4803343EAAF
:1012900000231A43014B1A6070470000103C0240C3
:1012A000074A126822F44072054B1A601A46126807
:1012B0001A601A46126842F001021A600170704703
:1012C000103C024010B50A49096821F44071084CED
:1012D00021602146096841F4407121602146096876
:1012E00041F0010121600260BFF36F8F436010BDC8
:1012F000103C0240084A126822F44072064B1A6001
:101300001A46126842F480721A601A46126842F055
:1013100001021A6001807047103C0240084A1268BE
:1013200022F44072064B1A601A46126842F40072A8
:101330001A601A46126842F001021A600160704792
:10134000103C02402348006800F0100040B12248E1
:10135000C06940F010002049C86110201D49086094
:101360001C48006800F0200040B11B48C06940F0F4
:1013700008001949C861202016490860154800680E
:1013800000F0400040B11448C06940F00400124928
:10139000C86140200F4908600E48006800F08000D6
:1013A00040B10D48C06940F002000B49C86180207F
:1013B000084908600748006800F0020040B106488C
:1013C000C06940F020000449C8610220014908605A
:1013D000704700000C3C0240FC11002070B5044630
:1013E000002500201449C86101F080FA054609E093
:1013F000601C38B124B101F079FA401BA04201D938
:10140000032070BD0D48006800F480300028EFD143
:101410000A48006800F0010010B101200749086087
:101420000648006800F0F20018B1FFF78BFF0120BA
:10143000E7E70020E5E70000FC1100200C3C02403B
:101440009FED1C0B81ED000B9FED1C0A81ED020A44
:101450009FED1B0A81ED030A9FED1A0A81ED080A30
:101460009FED190A81ED090A9FED180B81ED0A0B1A
:101470009FED140A81ED0C0A9FED160B82ED000B17
:101480009FED0E0A82ED020A9FED0C0A82ED030A1F
:101490009FED0C0A82ED080A9FED0B0A82ED090A06
:1014A0009FED0A0B82ED0A0B9FED060A82ED0C0AF6
:1014B0007047000000000000000000400000000035
:1014C000CDCC4C3E0000804600A00C460000000041
:1014D0000088C340000000000000084010B52DED5A
:1014E000088BB0EE408AF0EE608AB0EE419AF0EEE2
:1014F000619AB0EE42AAF0EE62AA18EE900A0BF0E2
:101500004BFB41EC1B0BB0EE4B1AF0EE6B1AB0EE3E
:10151000690A234804F0FDF9224880ED000A18EE1C
:10152000100A0BF039FB41EC1B0BB0EE4B1AF0EE3E
:101530006B1AB0EE490A1C4804F0EBF91B4880ED29
:10154000000A1AEE900A0BF027FB41EC1B0BB0EEE1
:101550004B1AF0EE6B1AB0EE4A0A154804F0D9F9AE
:10156000144880ED000A90ED000ABDEEC00A10EEAE
:10157000100A02B20D4890ED000ABDEEC00A10EE4E
:10158000100A01B2074890ED000ABDEEC00A10EE45
:10159000100A00B204F09CFCBDEC088B10BD0000EA
:1015A0001055002064010020B05400206801002084
:1015B000705500206C01002030B5034613B94FF67A
:1015C000FF7030BD09E013F8014B82EA0400C0B29D
:1015D000054D35F8100080EA2222081EA1F1010114
:1015E000F1D11046EDE7000008D0000870B50A48B8
:1015F0000468001D0568001D0668344454B10822C3
:101600000649204603F038FE0422044910312846DA
:1016100003F032FE70BD0000107AFF1FBE090020EB
:1016200000BF012009F0EBF9FBE710B5024692F884
:101630002030012B01D0022B06D1106840690843ED
:1016400014686061002010BD506A40F48020506230
:101650000120F8E7F0B504460D461E4694F82070C8
:1016600020688368A86800B900E000BF012F01D09E
:10167000022F7DD103F0806030B903F0006018B90B
:1016800003F0805000287ED0C3F301610120884020
:101690003060A86860B9B5F800C0E86840EA4C5C02
:1016A000206800F5C07000EB0110C0F800C00FE02A
:1016B000D5E901C040EACC00D5F80CC040EA0C00E6
:1016C000D4F800C00CF5C07C0CEB011CCCF8000079
:1016D000D5F810C0206800F5C07000EB0110C0F80C
:1016E00004C0287D01280ED1206800F5C07000EBF1
:1016F0000110406840F4807C206800F5C07000EB69
:101700000110C0F804C0D079000692F806C040EA83
:101710000C4092F805C040EA0C2092F804C040EA60
:101720000C00D4F800C00CF5C07C0CEB011CCCF80C
:101730000C00D078000692F802C040EA0C4092F803
:1017400001C040EA0C2092F800C040EA0C00D4F836
:1017500000C00CF5C07C0CEB011CCCF80800206824
:1017600000F5C07000EB0110006840F0010C01E0D2
:101770000FE008E0206800F5C07000EB0110C0F831
:1017800000C00020F0BD606A40F4001060620120DB
:10179000F8E7606A40F4802060620120F2E7000010
:1017A000F0B504460A4694F82050012D01D0022DD0
:1017B0007ED1424901F50071086840F001000860DF
:1017C000086820F47C5008600868566A40EA0620E1
:1017D0000860107D00F01F06012000FA06F3C869BA
:1017E0009843C861A1F50071D069C8B9D1F80C025D
:1017F0009843C1F80C02908880B2968940EA064668
:1018000001F51070576940F83760108880B216896A
:1018100040EA064601F51070576900EBC7004660C4
:10182000D069012819D1D1F80C021843C1F80C0273
:10183000908880B2168840EA064601F51070576914
:1018400040F83760908980B2168940EA064601F573
:101850001070576900EBC7004660906928B9D1F84D
:1018600004029843C1F8040204E0D1F804021843CA
:10187000C1F80402106928B9D1F814029843C1F8DC
:10188000140204E0D1F814021843C1F81402106ADB
:10189000012804D1D1F81C021843C1F81C02D1F868
:1018A000000220F00100C1F800020020F0BDFFE7B7
:1018B000606A40F4802060620120F7E70064004025
:1018C000704770B5044694F82050012D01D0022DC8
:1018D0007DD151B92068C06800F0030080B9606A0A
:1018E00040F400106062012070BD2068006900F0C3
:1018F000030028B9606A40F4001060620120F3E739
:10190000206800F5D87000EB0110006800F00400BA
:101910009060906840B9206800F5D87000EB011025
:101920000068400D106007E0206800F5D87000EBFB
:1019300001100068C0085060206800F5D87000EB06
:101940000110006800F00200D060206800F5D87037
:1019500000EB0110406800F00F00082802D30820B7
:10196000106108E0206800F5D87000EB01104068B5
:1019700000F00F001061206800F5D87000EB011036
:10198000406800F47F40000A9061206800F5D8703C
:1019900000EB01104068000C5061206800F5D87021
:1019A00000EB011080681870206800F5D87000EB1B
:1019B0000110806800F47F40000A5870206800F52C
:1019C000D87000EB0110806800F47F0000E03CE07C
:1019D000000C9870206800F5D87000EB011080684A
:1019E000000ED870206800F5D87000EB0110C068B8
:1019F0001871206800F5D87000EB0110C06800F481
:101A00007F40000A5871206800F5D87000EB011083
:101A1000C06800F47F00000C9871206800F5D87051
:101A200000EB0110C068000ED87131B92068C068A1
:101A300040F020002668F06005E02068006940F072
:101A400020002668306100204EE7606A40F4802064
:101A50006062012048E72DE9F05F04460025206818
:101A600046692068D0F80490206887682068D0F81C
:101A70000CA02068D0F810B02068D0F8188006F0CC
:101A80000100002855D007F00100C0B101202168F5
:101A9000886007F0020018B1204600F0F0FA0EE06E
:101AA00007F0040010B145F4006508E007F00800F5
:101AB00010B145F4805502E0204600F0DFFA07F44B
:101AC0008070C8B14FF480702168886007F400709E
:101AD00018B1204600F0D5FA0EE007F4806010B18E
:101AE00045F4005508E007F4006010B145F4804566
:101AF00002E0204600F0C4FA07F48030C8B14FF489
:101B000080302168886007F4003018B1204600F06A
:101B1000BAFA0EE007F4802010B145F4004508E061
:101B200007F4002010B145F4803502E0204600F0B3
:101B3000A9FA06F0080038B10AF0100020B145F407
:101B4000007510202168C86006F0040040B10AF05A
:101B5000080028B108202168C860204600F01CFA5F
:101B600006F0020038B12068C06800F0030010B130
:101B7000204600F013FA06F0400038B10BF01000D8
:101B800020B145F4806510202168086106F020002E
:101B900040B10BF0080028B10820216808612046F8
:101BA00000F03AFA06F0100038B12068006900F041
:101BB000030010B1204600F030FA06F4003040B1C6
:101BC00009F0100028B1102021684860204600F07C
:101BD00025FA06F4803040B109F0080028B1082049
:101BE00021684860204600F04FFA06F4004088B3B0
:101BF00009F0040078B306F4807020B108F0010009
:101C000008B145F0010506F4007020B108F00200AB
:101C100008B145F0020506F4806020B108F0040028
:101C200008B145F0040506F40060A0B108F07000AA
:101C300088B108F07000402817D006DC10280BD0BF
:101C400020280CD0302819D10CE0502810D0602862
:101C500014D110E01DE019E045F008050FE045F053
:101C600010050CE045F0200509E045F0400506E0D0
:101C700045F0800503E045F4807500E000BF00BF3B
:101C80002068806920F07000216888610420216844
:101C900048602DB1606A284360622046FFF710FE5D
:101CA000BDE8F09F70B504460CB9012070BD94F8F2
:101CB000200010B9204600F0AFF82068006840F01E
:101CC00001002168086000F011FE05460DE000F0FB
:101CD0000DFE401B0A2808D9606A40F4003060629B
:101CE000052084F820000120E0E72068406800F02B
:101CF00001000028EBD02068006820F00200216875
:101D0000086000F0F3FD05460DE000F0EFFD401B1C
:101D10000A2808D9606A40F400306062052084F81F
:101D200020000120C2E72068406800F0020000287F
:101D3000EBD1207E012806D12068006840F08000A9
:101D40002168086005E02068006820F080002168B4
:101D50000860607E012806D12068006840F04000DD
:101D60002168086005E02068006820F040002168D4
:101D70000860A07E012806D12068006840F020009D
:101D80002168086005E02068006820F020002168D4
:101D90000860E07E012806D12068006820F010006D
:101DA0002168086005E02068006840F010002168A4
:101DB0000860207F012806D12068006840F00800F4
:101DC0002168086005E02068006820F008002168AC
:101DD0000860607F012806D12068006840F0040098
:101DE0002168086005E02068006820F00400216890
:101DF0000860D4E902010843216908436169084386
:101E00006168491E08432168C861002060620120A2
:101E100084F82000002049E710B586B0044614215C
:101E200001A8FEF7C0FB56492068884249D15548B1
:101E30000068401C534908600846006801280FD11B
:101E400000BF002000905048006840F000704E49EC
:101E500008600846006800F00070009000BF00BFF6
:101E600000BF0020009048481038006840F008008B
:101E70004549103908600846006800F008000090E5
:101E800000BF00BF032001900220029000200390B9
:101E9000032004900920059001A93C4800F026FC8D
:101EA00000220521132000F0B5FD132000F09EFD57
:101EB00000220521142000F0ADFD142000F096FD55
:101EC0005CE033492068884258D100BF0020009070
:101ED0002D48006840F080602B4908600846006883
:101EE00000F08060009000BF00BF26480068401CE2
:101EF000244908600846006801280FD100BF00206F
:101F000000902148006840F000701F4908600846B2
:101F1000006800F00070009000BF00BF00BF00200C
:101F2000009019481038006840F002001649103936
:101F300008600846006800F00200009000BF00BF83
:101F40006020019002200290002003900320049062
:101F50000920059001A90F4800F0C8FB00220521C7
:101F60003F2000F057FD3F2000F040FD00220521FA
:101F7000402000F04FFD402000F038FD06B010BDBD
:101F8000006400404000002040380240000C024045
:101F900000680040000402407047000010B588B09F
:101FA000044615492068884224D1144B01AA002117
:101FB0001348FFF786FC0198A0F20120062818D2EA
:101FC000DFE800F003070B170F130E4808F0E8FADC
:101FD0000FE00D4808F0E4FA0BE00C4808F0E0FAD6
:101FE00007E00B4808F0DCFA03E00A4808F0D8FAEA
:101FF00000BF00BF08B010BD006400405C010020BD
:10200000440F00205851002000510020A85000200B
:10201000F84F00205050002070477047704770B54F
:10202000044694F82000012822D1022084F82000E0
:102030002068006820F001002168086000F056FC6C
:1020400005460DE000F052FC401B0A2808D9606AE2
:1020500040F400306062052084F82000012070BD4B
:102060002068406800F001000028EBD16062F6E7CC
:10207000606A40F4002060620120F0E7704770471A
:102080007047704770477047704770B50446A56D3C
:1020900000F02CFC064694F83500022808D0802079
:1020A000606500BF002084F8340000BF012070BDCF
:1020B0002068006820F016002168086020684069E8
:1020C00020F0800021684861206C08B9A06C28B11C
:1020D0002068006820F00800216808602068006817
:1020E00020F001002168086010E000F0FFFB801B79
:1020F00005280BD920206065032084F8350000BF37
:10210000002084F8340000BF0320D0E72068006876
:1021100000F001000028E8D194F85C103F208840CE
:10212000A860012084F8350000BF002084F8340046
:1021300000BF00BFBBE7014691F83500022803D07D
:102140008020486501207047052081F83500086827
:10215000006820F001000A6810600020F3E700002A
:10216000F8B50446002000908C4800684FF41651E2
:10217000B0FBF1F7A56D2E6894F85C10082088403C
:10218000304098B12068006800F0040070B1206809
:10219000006820F004002168086094F85C100820B2
:1021A0008840A860606D40F00100606594F85C10A4
:1021B00001208840304068B12068406900F080000C
:1021C00040B194F85C1001208840A860606D40F038
:1021D0000200606594F85C1004208840304068B1CB
:1021E0002068006800F0020040B194F85C10042000
:1021F0008840A860606D40F00400606594F85C1051
:1022000010208840304078B32068006800F0080053
:1022100050B394F85C1010208840A86020680068D3
:1022200000F4802080B12068006800F4002028B904
:10223000206CC8B12046216C884715E0A06C98B18D
:102240002046A16C88470FE02068006800F4807089
:1022500028B92068006820F0080021680860206C18
:1022600010B12046216C884794F85C1020208840EB
:102270003040002865D02068006800F01000002879
:102280005FD094F85C1020208840A86094F8350056
:10229000052828D12068006820F016002168086011
:1022A0002068406920F0800021684861206C08B9EE
:1022B000A06C28B12068006820F008002168086040
:1022C00094F85C103F208840A860012084F8350015
:1022D00000BF002084F8340000BF206D10B12046FC
:1022E000216D8847F8BD2068006800F4802080B127
:1022F0002068006800F4002028B9606C10B1204606
:10230000616C88471DE0E06BD8B12046E16B8847DF
:1023100017E02068006800F4807068B920680068E1
:1023200020F0100021680860012084F8350000BF0B
:10233000002084F8340000BFE06B10B12046E16B50
:102340008847606D38B3606D00F00100F0B1052082
:1023500084F835002068006820F0010021680860DA
:1023600000BF0098401C0090B84200D905E02068EA
:10237000006800F001000028F3D100BF012084F8BC
:10238000350000BF002084F8340000BFE06C10B1BD
:102390002046E16C884700BFA4E700005000002001
:1023A0002DE9F0410446002500F0A0FA074614B9D3
:1023B0000120BDE8F081606A00B100BF022084F80E
:1023C000350000BF002084F8340000BF206800689A
:1023D00020F00100216808600AE000F087FAC01BC5
:1023E000052805D920206065032084F83500E0E742
:1023F0002068006800F001000028EED12068056820
:1024000021480540D4E901010843E16808432169F6
:10241000084361690843A1690843E1690843216AE7
:1024200008430543606A042803D1D4E90B0108433B
:102430000543206805602068456925F00705606A46
:102440000543606A04280DD1A06A0543E06A48B1DB
:102450002046FEF729FE28B140206065012084F85F
:102460003500A6E7206845612046FEF703FE0646D4
:1024700094F85C103F208840B06000206065012027
:1024800084F83500002094E73F8010F02DE9F047F4
:1024900004460D4616461F464FF00008D4F85890E3
:1024A00000BF94F83400012802D10220BDE8F08773
:1024B000012084F8340000BF94F83500012825D1AC
:1024C000022084F83500002060653B4632462946EC
:1024D0002046FEF73EFE94F85C103F208840C9F885
:1024E00008002068006840F0160021680860206C31
:1024F00028B12068006840F0080021680860206862
:10250000006840F001002168086006E000BF00207C
:1025100084F8340000BF4FF002084046C6E70000D0
:1025200070B5044600F0E2F906462546681C10B175
:1025300004480078054400BF00F0D8F9801BA84289
:10254000FAD370BD4C0000202DE9F04104460F463F
:10255000002600BF2548007E012802D10220BDE8E8
:10256000F08101202149087600BF4CF25030FEF77F
:1025700035FF0546002D31D1401E38602068012806
:102580000FD1207C6168FEF773FE4CF25030FEF7ED
:1025900025FF05461648006820F00400144908602D
:1025A0001AE0A66812E0217C3046FEF7F7FD4CF2F7
:1025B0005030FEF713FF05460D48006820F07A0002
:1025C0000B4908600DB13E6005E0761CD4E90210AD
:1025D0000844B042E7D800BFFEF70EFE00BF00205F
:1025E0000249087600BF2846B9E70000FC11002028
:1025F000103C02400348006840F000400149086078
:1026000000207047103C02402DE9F0410646884604
:1026100014461D4600BF1E48007E012802D102203C
:10262000BDE8F08101201A49087600BF4CF2503015
:10263000FEF7D4FE07461FBB26B9E1B24046FEF7BF
:102640002FFE12E0012E04D1A1B24046FEF752FE49
:102650000BE0022E04D121464046FEF75FFE04E067
:1026600022462B464046FEF72DFE4CF25030FEF738
:10267000B5FE07460748006820F0010005490860DC
:1026800000BF00200249087600BF3846C8E70000B6
:10269000FC110020103C024000200949096801F0AB
:1026A000004159B10749064A0C3A116006491160C8
:1026B0000349096801F0004101B1012070470000A1
:1026C000103C024023016745AB89EFCD7047000005
:1026D00010B5044604480068204020B10248046058
:1026E0002046FFF7F3FF10BD143C0140F8B5024649
:1026F0000B460025002400200021D6E0012606FA22
:1027000001F51E6806EA0504AC4274D11E7906F094
:102710000306012E04D01E7906F00306022E13D103
:1027200090684F000326BE40B0434F00DE68BE40B5
:1027300030439060506801268E40B0431E79C6F346
:1027400000168E40304350601E7906F00306032EBB
:1027500009D0D0684F000326BE40B0434F009E68AA
:10276000BE403043D0601E7906F00306022E13D11E
:10277000CF0802F1200656F827004E07F70E0F2665
:10278000BE40B0434F07FF0E1E69BE403043CF0826
:1027900002F1200646F8270010684F000326BE40CD
:1027A000B0431E7906F003064F00BE403043106070
:1027B0005E6806F44036002E76D000BF00260096F4
:1027C0003C4E366846F480463A4F3E603E46366898
:1027D00006F48046009600BF00BF374E8F0856F8BB
:1027E00027008E07370F0F26BE40B043334EB2424C
:1027F00002D1002624E057E0314EB24201D1012639
:102800001EE0304EB24201D1022619E02E4EB242F5
:1028100001D1032614E02D4EB24201D104260FE06F
:102820002B4EB24201D105260AE02A4EB24201D116
:10283000062605E0284EB24201D1072600E0082610
:102840008F073F0FBE4030431B4E8F0846F82700CE
:10285000224E3068A0435E6806F4801606B120431D
:102860001E4E3060361D3068A0435E6806F40016C8
:1028700006B12043194E361D3060184E361F3068A1
:10288000A0435E6806F4003606B12043134E361F9F
:102890003060361F3068A0435E6806F4803606B1AB
:1028A00020430E4E083E3060491C1029FFF426AF2D
:1028B000F8BD0000443802400838014000000240E2
:1028C0000004024000080240000C024000100240D8
:1028D0000014024000180240001C0240083C014065
:1028E0000AB1816101E00B0483617047014800680F
:1028F000704700004400002003480068034909783D
:102900000844014908607047440000204C00002042
:1029100010B50D48006840F400700B490860084687
:10292000006840F4806008600846006840F48070E9
:102930000860032000F0ACF80F2000F007F800F06A
:102940002BF8002010BD0000003C024070B504468A
:102950000E4800784FF47A71B1FBF0F00C49096829
:10296000B1FBF0F5284601F03BFD08B1012070BD38
:10297000102C07D200222146501E00F04BF80548CB
:10298000046001E00120F2E70020F0E74C000020A5
:10299000500000204800002008B500BF0020009033
:1029A0001148006840F480400F49086008460068FC
:1029B00000F48040009000BF00BF00BF00200090E6
:1029C000081F006840F08050091F08600846006832
:1029D00000F08050009000BF00BF00220F21901E29
:1029E00000F018F808BD00004438024001460846CF
:1029F00000280DDB00BF00BF00F01F0301229A403A
:102A000043099B0003F1E023C3F8002100BF00BF8E
:102A100000BF70472DE9F05F80460D46164600273F
:102A200006F050FD074639462A46334601F00700B6
:102A3000C0F1070ABAF1040F02D94FF0040A01E00D
:102A4000C0F1070AD14600F1040ABAF1070F02D219
:102A50004FF0000A01E0A0F1030AD4464FF0010A4A
:102A60000AFA09FAAAF1010A0AEA020A0AFA0CFAAF
:102A70004FF0010B0BFA0CFBABF1010B0BEA030B54
:102A80004AEA0B042146404606F024FDBDE8F09FCB
:102A900000BF00F00702064B19684FF6FF0319400C
:102AA000044B0B4343EA0221014B196000BF7047FE
:102AB0000CED00E00000FA05704702461068416224
:102AC00000207047F0B5034615461868446A21B9DE
:102AD00044EA05401E68B06219E01868806A04EB99
:102AE0001044002208E0186800F5827050F82200B7
:102AF00004EB1044501CC2B2481E9042F3D844EA82
:102B00000547186800F582704E1E40F826700020B8
:102B1000F0BD10B50446D4F8E00405F008F810BD87
:102B200070B504460D4605EBC50304F1140101EB35
:102B30008301CA682946D4F8E00404F0EBFE70BDB6
:102B400070B504460D4605EBC50304F5157101EBA0
:102B50008301CA682946D4F8E00404F063FF70BD1D
:102B600010B50446D4F8E00404F0E4FF10BD2DE9EC
:102B7000F04104460D4605F08000802808D105F09C
:102B80000F0000EBC00104F1140000EB810607E028
:102B900005F00F0000EBC00104F5157000EB810695
:102BA0003146206806F01CFA07463846BDE8F08139
:102BB00070B504460E4606F0800080280AD106F063
:102BC0000F0000EBC00104F1140000EB81050120AF
:102BD000687009E006F00F0000EBC00104F5157005
:102BE00000EB81050020687006F00F00287000BF20
:102BF00094F89404012801D1022070BD012084F8CA
:102C0000940400BF2946206805F078FD00BF00202D
:102C100084F8940400BF00BFEFE770B504460E4689
:102C200006F00F002179884201D9012070BD06F01D
:102C3000800080280AD106F00F0000EBC00104F1EB
:102C4000140000EB81050120687009E006F00F0018
:102C500000EBC00104F5157000EB810500206870E1
:102C60000020A87006F00F00287000BF94F89404AC
:102C7000012801D10220D9E7012084F8940400BF83
:102C80002946206805F038FF00BF002084F894042E
:102C900000BF00BFCAE7024601F00F0000EBC0030F
:102CA00002F5157000EB8300406970472DE9F0478D
:102CB00005460E4690461F464FF0000906F080007C
:102CC00080280AD106F00F0000EBC00105F11400C6
:102CD00000EB81040120607009E006F00F0000EBBA
:102CE000C00105F5157000EB81040020607006F04E
:102CF0000F002070C8F30A00A0602771607808B147
:102D000020786083022F01D10020607100BF95F808
:102D10009404012802D10220BDE8F087012085F843
:102D2000940400BF2146286805F0F4FB00BF002092
:102D300085F8940400BF4846EEE72DE9F0410546CA
:102D40000E461746984606F00F0000EBC00105F549
:102D5000157000EB8104E760C4F81080002060610A
:102D6000607006F00F002070A879012800D1E7619B
:102D7000AA792146286805F053FF0020BDE8F081BC
:102D800070B504460D4605F00F002179884201D93F
:102D9000012070BD05F0800080280AD105F00F00E9
:102DA00000EBC00104F1140000EB810601207070FB
:102DB00007E005EBC50104F5157000EB8106002066
:102DC00070700120B07005F00F00307000BF94F8F3
:102DD0009404012801D10220DBE7012084F8940447
:102DE00000BF3146206805F0CEFE05F00F0028B97F
:102DF000A17904F29C42206805F046FE00BF002045
:102E000084F8940400BF00BFC3E72DE9F0410546F4
:102E10000E461746984606F00F0000EBC00105F17C
:102E2000140000EB8104E760C4F8108000206061AA
:102E30000120607006F00F002070A879012800D1F1
:102E4000E761AA792146286805F0EAFE0020BDE87E
:102E5000F0812DE9FE4F0446D4F800B05E462068AC
:102E600006F0A0F9002874D1206806F0DAF908B954
:102E7000BDE8FE8F40F608008059C0F30D20C4F86D
:102E8000D404206806F0CDF900F00200022805D134
:102E90002068406900F0020021684861206806F05F
:102EA000C0F900F01000102845D12068806920F09A
:102EB000100021688861DBF8209009F00F0000EB1A
:102EC000C00104F5157000EB810AC9F343400228E4
:102ED0001AD147F6F07009EA000030B3C9F30A12BC
:102EE0005846DAF80C1006F0A1F9C9F30A11DAF81D
:102EF0000C000844CAF80C00C9F30A11DAF81400EF
:102F00000844CAF8140010E0C9F3434006280CD165
:102F1000082204F29C41584606F088F9C9F30A11C8
:102F2000DAF814000844CAF814002068806940F0F8
:102F3000100021688861206806F073F900F4002011
:102F4000B0F5002F7BD10025206806F03AF90290F9
:102F500072E0E1E2029800F00100002868D0E9B2D6
:102F6000206806F051F9804608F0010048B10121BF
:102F700006F5306000EB451081602946204602F0DE
:102F8000CBFB08F00800082809D1082106F53060BD
:102F900000EB451081602946204602F08BFB08F0CB
:102FA0001000102805D1102106F5306000EB451007
:102FB000816008F00200022824D1DBF8140000F040
:102FC0008000802807D140F60400805940F48061D9
:102FD00040F60400815105EBC50104F5157000EBC6
:102FE000810A9AF80300012806D100208AF803001C
:102FF000E9B2204600F09BFA022106F5306000EBB2
:103000004510816008F02000202805D1202106F518
:10301000306000EB4510816008F40050B0F5005FAF
:1030200006D14FF4005106F5306000EB4510816089
:103030006D1C029840080290029800288AD12068EE
:1030400006F0EFF800F48020B0F5802F7DD12068E5
:1030500006F0ADF8029000259AE0029800F0010019
:10306000002873D0E9B2206806F0B5F8804608F071
:103070000100F0B305F00F0101208840019040F6F7
:1030800034008159019821EA000040F6340188514A
:10309000012106F5106000EB45108160A079012840
:1030A00024D105EBC50104F1140000EB810005EB10
:1030B000C502C16804F1140000EB8200806801447D
:1030C00005EBC50204F1140000EB8200C1606DB98C
:1030D00005EBC50104F1140000EB8100006928B97B
:1030E00004F29C420121206805F0CEFCE9B22046A2
:1030F00000E001E0FFF714FD08F00800082805D102
:10310000082106F5106000EB4510816008F0100002
:10311000102805D1102106F5106000EB45108160E4
:1031200008F04000402805D1402106F5106000EB72
:103130004510816008F0020002281DD1294658463A
:1031400005F0F3FF05EBC50101E025E01CE004F10B
:10315000140000EB810A9AF80300012806D1002030
:103160008AF80300E9B2204600F0D8F9022106F5FA
:10317000106000EB4510816008F08000802803D1CA
:103180002946204602F06AFB6D1C02984008029016
:10319000029800287FF461AF206806F042F800F042
:1031A0000040B0F1004F1CD140F60400805920F0DF
:1031B000010140F60400815194F8CC04012807D1A4
:1031C000002084F8CC0400212046FFF775FC02E0C3
:1031D000204600F0D1FA2068406900F000402168E4
:1031E0004861206806F01DF800F40060B0F5006F3B
:1031F0000ED140F60800805900F0010010B12046C1
:1032000000F012FB2068406900F40060216848610A
:10321000206806F006F800F48050B0F5805F7ED19B
:1032200040F60400805920F0010140F6040081516D
:103230001021206805F079FF002732E04FF67F313A
:1032400006F5106000EB4710816006F5106000EB9A
:103250004710006820F4001106F5106000EB4710DD
:1032600001604FF67F3106F5306000EB471081605A
:1032700006F5306000EB4710006820F4001106F5F9
:10328000306000EB4710016006F5306000EB47103E
:10329000006840F0006106F5306000EB4710016007
:1032A0007F1C2079B842C9D840F61C00805940F0F4
:1032B000011140F61C008151E07B70B1D6F8840802
:1032C00040F00B01C6F8841840F64400805940F0E5
:1032D0000B0140F6440081510FE040F61400805984
:1032E00042F22B01084340F614018851081F80590F
:1032F00040F00B014FF401608151D6F8000820F432
:10330000FE60C6F80008A17904F29C42206805F02E
:10331000BBFB2068406900F48050216800E000E0B9
:103320004861206805F07DFF00F40050B0F5005FB3
:1033300017D1206805F056F9206805F020FFE071EC
:1033400000F04EFB0090E2792068009905F0F0FF54
:10335000204600F0F9F92068406900F40050216827
:103360004861206805F05DFF00F00800082808D1DA
:10337000204600F008FA2068406900F00800216843
:103380004861206805F04DFF00F08000802818D1CA
:10339000DBF8180020F08000CBF8180001250DE0C4
:1033A00005EBC50104F5157000EB8100C07801281C
:1033B00003D1E9B22046FFF7DAFB6D1C2079A84261
:1033C000EED8206805F02DFF00F48010B0F5801FC6
:1033D0002DD1012522E006F5106000EB4510D0F854
:1033E000009005EBC50104F1140000EB81000079A9
:1033F000012812D109F00040B0F1004F0DD1012198
:1034000005EBC50204F1140000EB8200C170E8B2C4
:1034100040F080012046FFF7AAFB6D1C2079A842EE
:10342000D9D82068406900F480102168486120687C
:1034300005F0F7FE00F40010B0F5001F44D101259F
:1034400038E006F5306000EB4510D0F8009005EB51
:10345000C50104F5157000EB81000079012828D121
:1034600009F00040B0F1004F23D194F8D40400F0EB
:103470000100C9F3004188421BD1012105EBC502BF
:1034800004F5157000EB8200C170DBF8180040F005
:103490008000CBF81800DBF8140000F0800040B981
:1034A00040F60400805940F4007140F60400815158
:1034B00003E06D1C2079A842C3D800BF2068406992
:1034C00000F4001021684861206805F0AAFE00F0B1
:1034D0008040B0F1804F08D12046FFF71AFB2068EA
:1034E000406900F0804021684861206805F099FE3D
:1034F00000F0040004280FD12068D0F8049009F0EF
:103500000400042802D12046FFF72AFB2068406807
:1035100040EA09002168486000BFA9E470B504468C
:103520000D462946D4F8E00404F070FB70BD70B578
:1035300004460D462946D4F8E00404F08BFB70BD28
:10354000F8B504460CB90120F8BD266894F8950436
:1035500028B9002084F89404204600F0A1F8032044
:1035600084F89504B6F1A04F01D10021A171206823
:1035700005F082FA207C8DF8000094E80F0005F039
:1035800045F820B1022084F895040120DCE70021F1
:10359000206805F07BFE20B1022084F8950401200C
:1035A000D2E7002531E0012105EBC50204F114004A
:1035B00000EB8200417005EBC50104F1140000F836
:1035C000215005EBC50100EB81004583002105EB8F
:1035D000C50204F1140000EB8200017105EBC50285
:1035E00004F1140000EB8200816005EBC50204F1D8
:1035F000140000EB8200C16005EBC50204F1140069
:1036000000EB82000161681CC5B22079A842CADCC7
:1036100000252AE0002105EBC50204F5157000EB3A
:103620008200417005EBC50104F5157000F82150CA
:10363000002105EBC50200EB8200017105EBC5021C
:1036400004F5157000EB8200816005EBC50204F5FE
:10365000157000EB8200C16005EBC50204F5157022
:1036600000EB82000161681CC5B22079A842D1DC60
:10367000207C8DF8000094E80F0005F009F920B1D6
:10368000022084F8950401205EE700206074012088
:1036900084F89504206805F0E9F8002054E700005C
:1036A00010B586B00446142101A8FCF77CFF206801
:1036B000B0F1A04F42D100BF002000902048006828
:1036C00040F001001E4908600846006800F0010053
:1036D000009000BF00BF4FF4C05001900220029044
:1036E00000200390032004900A20059001A91548AA
:1036F000FEF7FCFF00BF1248001D006840F080008C
:103700000F49091D086000BF002000900C481430CC
:10371000006840F480400A49143108600846006897
:1037200000F48040009000BF00BF00BF00220521D0
:103730004320FFF76FF94320FFF758F906B010BD9B
:10374000303802400000024070B504460125E0799F
:1037500008B9002506E0E079022801D1012501E041
:10376000FDF718FD2946D4F8E00404F01DFBD4F859
:10377000E00404F0C3FA70BD10B50446D4F8E004C8
:1037800004F0F3FA10BD10B50446D4F8E00404F0D8
:10379000F7FA10BD70B504460D4600BF94F89404C6
:1037A000012801D1022070BD012084F8940400BFDB
:1037B00065742946206805F09DFD00BF002084F84F
:1037C000940400BF00BFEEE710B5044604F29C412C
:1037D000D4F8E00404F0FFFA10BD70B50446256883
:1037E00000BF94F89404012801D1022070BD01208B
:1037F00084F8940400BFE86800F0400030B1607BBA
:10380000012803D1A86B40F48030A863206805F03C
:103810005DFC206805F018F800BF002084F89404CF
:1038200000BF00BFE2E7000010B50446D4F8E00492
:1038300004F02EFB2068D0F8000E40F00100216853
:10384000C1F8000EE07A28B10348006840F0060095
:103850000149086010BD000010ED00E070B504469D
:103860000D460CB9012070BD5848006800F00700F3
:10387000A84209D255490D700846006800F00700BB
:10388000A84201D00120EEE7207800F002000228D3
:103890001DD1207800F00400042805D14C480068B0
:1038A00040F4E0504A490860207800F008000828F9
:1038B00005D14748006840F46040454908604448E5
:1038C000006820F0F000A1680843414908602078B2
:1038D00000F00100A8B36068012807D13C4808380F
:1038E0000068C0F34040B8B90120BCE76068022816
:1038F00002D06068032807D1354808380068C0F353
:10390000406048B90120AEE7314808380068C0F38C
:10391000400008B90120A6E72D48006820F0030008
:10392000616808432A490860FEF7E0FF064609E09F
:10393000FEF7DCFF801B41F28831884202D9032068
:1039400091E707E02248006800F00C006168B0EBE6
:10395000810FEDD11D48006800F00700A84209D989
:103960001A490D700846006800F00700A84201D00F
:10397000012078E7207800F00400042807D11448DB
:10398000006820F4E050E16808431149086020789D
:1039900000F00800082808D10D48006820F46040B5
:1039A000216940EAC1000A49086000F03FF808496F
:1039B0000968C1F30311074A515CC8400649086011
:1039C00006480068FEF7C2FF00204CE7003C0240BA
:1039D00008380240E0CF00085000002048000020D6
:1039E00001480068704700005000002000B5FFF754
:1039F000F7FF04490968C1F38221034A515CC840BA
:103A000000BD000008380240F0CF000800B5FFF705
:103A1000E7FF04490968C1F34231034A515CC840D9
:103A200000BD000008380240F0CF00082DE9F04743
:103A3000002400250026A1462548006800F00C005F
:103A400020B1042805D008283AD105E0DFF8849099
:103A500039E0DFF8849036E01D48001F006800F070
:103A60003F041B48001F006800F4800078B11A482A
:103A70001749091F0968C1F38811A0FB01700146AD
:103A8000224600233846FCF7E5FC05460EE01148C7
:103A90000F49091F0968C1F38811A0FB0170014695
:103AA000224600233846FCF7D5FC05460848001F8F
:103AB0000068C0F30140401C4600B5FBF6F902E087
:103AC000DFF8109000BF00BF4846BDE8F087000057
:103AD000083802400024F400001BB700F8B5044683
:103AE0000CB90120F8BD207800F00100002874D046
:103AF000F948006800F00C0004280DD0F648006872
:103B000000F00C00082813D1F348001F006800F4EF
:103B10008000B0F5800F0BD1EF4808380068C0F383
:103B20004040002859D06068002856D10120D9E7CC
:103B300000BF6068B0F5803F08D1E74808380068EA
:103B400040F48030E449083908601EE06068B0F550
:103B5000A02F0DD1E0480838006840F48020DE49ED
:103B6000083908600846006840F4803008600CE0BE
:103B7000D9480838006820F48030D74908390860EF
:103B80000846006820F48020086000BF606890B19B
:103B9000FEF7ACFE054606E0FEF7A8FE401B6428D3
:103BA00001D903209EE7CC4808380068C0F34040A4
:103BB0000028F1D011E0FEF799FE054606E0FEF779
:103BC00095FE401B642801D903208BE7C2480838C2
:103BD0000068C0F340400028F1D1207800F00200D6
:103BE00002285FD1BC48006800F00C0058B1BA4808
:103BF000006800F00C0008281CD1B748001F0068BE
:103C000000F48000B0B9B44808380068C0F3400040
:103C100020B1E068012801D0012063E7AE480838F0
:103C2000006820F0F800216940EAC100AA4908397B
:103C3000086037E0E06800B30120A8490860FEF79B
:103C400055FE054606E0FEF751FE401B022801D94D
:103C5000032047E7A04808380068C0F34000002868
:103C6000F1D09D480838006820F0F800216940EA4A
:103C7000C10099490839086014E00020974908609C
:103C8000FEF734FE054606E0FEF730FE401B022834
:103C900001D9032026E7904808380068C0F34000A7
:103CA0000028F1D1207800F0080008282CD16069A4
:103CB000A8B101208A490860FEF718FE054606E013
:103CC000FEF714FE401B022801D903200AE78248B0
:103CD0006C300068C0F340000028F1D014E00020F0
:103CE0007F490860FEF702FE054606E0FEF7FEFD8E
:103CF000401B022801D90320F4E677486C300068A5
:103D0000C0F340000028F1D1207800F0040004281E
:103D100070D1002770483830006800F0805090B9AA
:103D200000BF002000906C483830006840F08050A0
:103D30006949383108600846006800F080500090FA
:103D400000BF00BF01276748006800F48070B0B969
:103D50006448006840F4807062490860FEF7C6FD60
:103D6000054606E0FEF7C2FD401B022801D90320EC
:103D7000B8E65C48006800F480700028F2D000BF0C
:103D8000A068012808D154486830006840F001005C
:103D90005149683108601DE0A06805280DD14E48E2
:103DA0006830006840F004004B49683108600846FC
:103DB000006840F0010008600CE047486830006887
:103DC00020F001004449683108600846006820F08E
:103DD0000400086000BFA068A8B1FEF787FD054693
:103DE00009E0FEF783FD401B41F28831884202D989
:103DF000032077E626E0384868300068C0F34000CA
:103E00000028EED013E0FEF771FD054608E0FEF74E
:103E10006DFD401B41F28831884201D9032061E6E3
:103E20002D4868300068C0F340000028EFD1012F12
:103E300007D129483830006820F0805026493831B1
:103E4000086000BFA069002845D02348006800F042
:103E50000C0008285DD0A069022845D100201F4928
:103E60000866FEF743FD054606E0FEF73FFD401BF2
:103E7000022801D9032035E6174808380068C0F346
:103E800040600028F1D1D4E907010843616A40EAA3
:103E900081110122A06AC2EB500041EA00412C20AE
:103EA000005D41EA00600C49091F086001200B49D0
:103EB0000866FEF71BFD054606E0FEF717FD401BF2
:103EC000022801D903200DE6034808380068C0F332
:103ED00040600028F1D049E0083802400000474225
:103EE000800E474200700040002021490866FEF71E
:103EF000FDFC054606E0FEF7F9FC401B022801D94F
:103F00000320EFE51B480068C0F340600028F2D1B1
:103F10002CE0A069012800D1E4E51648001D0668E0
:103F2000A069012820D006F48001E06981421BD1FC
:103F300006F03F01206A814216D147F6C07030403A
:103F4000616AB0EB811F0FD106F440310122A06AF3
:103F5000C2EB5000B1EB004F06D106F070612C208F
:103F6000005DB1EB006F01D00120BBE50020B9E599
:103F7000000047420038024010B504460CB9012049
:103F800010BD606A38B96068B0F5827F00D105E085
:103F90000021E16102E00021216161610021A16253
:103FA00094F8510028B9002084F85000204600F011
:103FB00047F8022084F851002068006820F0400093
:103FC00021680860A08800F48270218901F404410E
:103FD0000843A18901F400610843217C01F002013A
:103FE0000843217D01F001010843218B01F4007198
:103FF0000843217F01F0380108432021095D01F0C9
:1040000080010843218D01F40051084321680860B4
:104010000421A06901EA104094F8241001F0100175
:104020000843216848602068C06920F40060216866
:10403000C86100206065012084F8510000209FE7DE
:1040400010B586B00446142101A8FCF7ACFA4B4920
:10405000206888427ED100BF002000904848006858
:1040600040F48050464908600846006800F48050DB
:10407000009000BF00BF00BF0020009040481438EF
:10408000006840F002003E491439086008460068A4
:1040900000F00200009000BF00BF00BF00200090B1
:1040A0000846006840F0010008600846006800F01B
:1040B0000100009000BF00BF182001900220029074
:1040C00000200390032004900520059001A92D48AD
:1040D000FEF70CFB8020019002200290002003904C
:1040E000032004900520059001A92748FEF7FEFA59
:1040F0002648274908604FF0C060486000212448E6
:104100008160C1604FF48061016100214161816182
:10411000C1614FF44031016200214162FEF740F974
:1041200008B1FDF737F800BF1948E064846300BFA9
:1041300016481830174908604FF0C06048604021A9
:10414000144881600021C1604FF480610161002149
:10415000416100E010E08161C1614FF40031016212
:1041600000214162FEF71CF908B1FDF713F800BF0A
:104170000848A064846300BF06B010BD0030014051
:104180004438024000040240000002404064024003
:1041900004100020641000202DE9FE4F04460F4655
:1041A00090461D460C9E01200190FEF79FFB814624
:1041B00094F851B060680290AA46BBF1010F0BD091
:1041C0000298B0F5827F04D1A06810B9BBF1040F4A
:1041D00002D00220BDE8FE8F1FB1B8F1000F00D061
:1041E0000DB90120F6E700BF94F85000012801D175
:1041F0000220EFE7012084F8500000BF94F851003E
:10420000042802D0052084F8510000206065C4F81D
:104210003880E587A5872763E586A58620646064E6
:104220002068006800F04000402805D02068006841
:1042300040F0400021680860E068B0F5006F52D19E
:10424000606810B1BAF1010F09D1206B00882168B4
:10425000C860206B801C2063E08E401EE0863BE03F
:104260002068806800F00200022810D1E08E70B152
:10427000019801280BD1206B00882168C860206B51
:10428000801C2063E08E401EE086002001902068A4
:10429000806800F0010068B1E08F58B12068C06804
:1042A000A16B0880A06B801CA063E08F401EE0879C
:1042B00001200190FEF71AFBA0EB0900B0420BD3DE
:1042C000701C48B1012084F8510000BF002084F820
:1042D000500000BF03207DE7E08E0028C0D1E08FB2
:1042E0000028BDD152E0606810B1BAF1010F09D1C8
:1042F000206B007821680873206B401C2063E08EDF
:10430000401EE0863CE02068806800F00200022841
:1043100010D1E08E70B1019801280BD1206B00788C
:1043200021680873206B401C2063E08E401EE086ED
:10433000002001902068806800F0010068B1E08FE3
:1043400058B12068C068A16B0870A06B401CA063C6
:10435000E08F401EE08701200190FEF7C7FAA0EB36
:104360000900B04201D3701C00B94EB9012084F895
:10437000510000BF002084F8500000BF032029E74F
:10438000E08E0028BFD1E08F0028BCD14A463146DC
:10439000204601F02FFC40B12020606500BF0020C6
:1043A00084F8500000BF012014E7A06850B900BF96
:1043B000002000902068C06800902068806800900D
:1043C00000BF00BF012084F8510000BF002084F826
:1043D000500000BF606D08B10120FBE60020F9E647
:1043E00070B504462546681EB0F1807F01D30120D8
:1043F0000FE0681E4FF0E02148610F214FF0FF30C1
:1044000005F068F800204FF0E0218861072008617E
:10441000002070BD7047704730B502460B4600BFA4
:1044200092F83C00012801D1022030BD012082F821
:104430003C0000BF022082F83D001068446810680C
:10444000816824F070041868044310684460184DB3
:104450001068A8421BD01068B0F1804F17D0154DDE
:104460001068A84213D0144D1068A8420FD0134D05
:104470001068A8420BD0124D1068A84207D0114D09
:104480001068A84203D0104D1068A84205D121F051
:1044900080015868014310688160012082F83D0066
:1044A00000BF002082F83C0000BF00BFBDE7000055
:1044B000000001400004004000080040000C0040E3
:1044C00000040140004001400018004010B50446BF
:1044D0000CB9012010BD94F83D0028B9002084F8E3
:1044E0003C00204600F026F8022084F83D00211D03
:1044F000206801F03BFF012084F8460000BF84F8EB
:104500003E0001213F200155402001554120015529
:1045100000BF00BF012084F8420043200155442021
:1045200001554520015500BF012084F83D000020C1
:10453000D0E7000038B504460E492068884217D1FC
:1045400000BF002000900C48006840F010000A49AD
:1045500008600846006800F01000009000BF00BF2F
:10456000002205213620FEF755FA3620FEF73EFAE6
:1045700038BD00000010004040380240014691F86C
:104580003D00012801D001207047022081F83D0044
:104590000868C06840F001000B68D8601A4B0868D2
:1045A00098421BD00868B0F1804F17D0174B0868AD
:1045B000984213D0164B086898420FD0154B0868E4
:1045C00098420BD0144B0868984207D0134B0868E8
:1045D000984203D0124B086898420CD10868806852
:1045E00000F00702062A0CD00868006840F00100BD
:1045F0000B68186005E00868006840F001000B686F
:1046000018600020C0E700000000014000040040E6
:1046100000080040000C0040000401400040014040
:1046200000180040704770B504462068C5682068CF
:10463000066906F00200022819D105F002000228DE
:1046400015D1401F2168086101202077206880690A
:1046500000F0030018B12046FFF7E4FF05E0204614
:1046600000F097F8204600F095F80020207706F03B
:104670000400042819D105F00400042815D1C04312
:1046800021680861022020772068806900F440706A
:1046900018B12046FFF7C6FF05E0204600F079F884
:1046A000204600F077F80020207706F00800082860
:1046B00019D105F00800082815D1C0432168086108
:1046C000042020772068C06900F0030018B120465C
:1046D000FFF7A8FF05E0204600F05BF8204600F059
:1046E00059F80020207706F01000102819D105F0A5
:1046F0001000102815D1C0432168086108202077D8
:104700002068C06900F4407018B12046FFF78AFFA6
:1047100005E0204600F03DF8204600F03BF8002080
:10472000207706F0010048B105F0010030B16FF0CC
:10473000010021680861204600F02DF806F0800095
:10474000802809D105F08000802805D1C043216868
:1047500008612046FFF75EFE06F04000402809D1C0
:1047600005F04000402805D1C0432168086120467B
:1047700000F012F806F02000202809D105F02000F2
:10478000202805D1C043216808612046FFF743FE79
:1047900070BD7047704770477047704770470000A2
:1047A0002DE9F84F0446206805682068C66820682F
:1047B00047694FF00009CA4605F00F09B9F1000F2B
:1047C0000AD105F0200038B106F0200020B12046C3
:1047D00001F032FFBDE8F88FB9F1000F7CD007F08F
:1047E000010018B906F49070002875D005F001009A
:1047F00030B106F4807018B1606C40F00100606464
:1048000005F0040030B107F0010018B1606C40F011
:104810000200606405F0020030B107F0010018B139
:10482000606C40F00400606405F0080048B106F0D8
:10483000200010B907F0010018B1606C40F00800CA
:104840006064606C002846D005F0200028B106F0B6
:10485000200010B1204601F0EFFE20684069C0F34F
:10486000801A606C00F0080010B9BAF1000F2DD06A
:10487000204601F088FE2068406900F04000402892
:1048800020D100BF00BF2168143151E8001F21F082
:1048900040002168143141E80002002AF3D100BF32
:1048A000E06B50B17F48E16B0865E06BFDF743FCBE
:1048B00088B1E06B016D88470DE02046FFF76EFF81
:1048C00009E009E02046FFF769FF04E02046FFF712
:1048D00065FF002060647DE7206B012878D105F03A
:1048E0001000002874D006F010000028FAD000BF95
:1048F00000200090206800680090206840680090C8
:1049000000BF00BF2068406900F04000402870D11F
:10491000E06B006840681FFA80F8B8F1000F58D0CB
:10492000A08D404555DDA4F82E80E06BC069B0F540
:10493000807F43D000BF00BF21680C3151E8001FC9
:1049400021F4807021680C3141E80002002AF3D183
:1049500000BF00BF00BF2168143151E8001F21F0E3
:1049600001002168143141E80002002AF3D100BFA0
:1049700000BF00BF2168143151E8001F21F0400042
:104980002168143141E80002002AF3D100BF202041
:1049900084F842000020206300BF00BF21680C3172
:1049A00051E8001F21F0100021680C3141E800029D
:1049B000002AF3D100BFE06BFDF767FB02206063C4
:1049C000A08DE28D801A81B22046FFF7E6FE0EE050
:1049D00052E0A08D40450AD1E06BC069B0F5807F00
:1049E00005D102206063A18D2046FFF7D6FEF1E6D7
:1049F000FFE7A08DE18D401A1FFA80F8E08DD0B35B
:104A0000B8F1000F37D000BF00BF21680C3151E86A
:104A1000001F21F4907021680C3141E80002002A47
:104A2000F3D100BF00BF00BF2168143151E8001F5F
:104A300021F001002168143141E80002002AF3D17D
:104A400000BF202084F842000020206300BF00BF88
:104A500021680C3151E8001F21F0100021680C3151
:104A600041E80002002AF3D100BF02206063414602
:104A70002046FFF792FEADE605F0800030B106F06B
:104A8000800018B1204601F0F7FFA3E605F04000D2
:104A900030B106F0400018B1204601F0AAFD99E6B9
:104AA00000BF97E64D64000810B504460CB901201C
:104AB00010BDA06900B100E000BF94F8410028B922
:104AC000002084F84000204600F02AF8242084F8D2
:104AD00041002068C06820F400502168C86020466A
:104AE00001F028FE2068006920F4904021680861E8
:104AF0002068406920F02A00216848612068C06869
:104B000040F400502168C86000206064202084F8D0
:104B1000410084F842000020606300BFC8E7000045
:104B200010B586B00446142101A8FBF73CFD584996
:104B30002068884256D100BF002000905548006888
:104B400040F01000534908600846006800F010006B
:104B5000009000BF00BF00BF002000904D481438F7
:104B6000006840F002004B491439086008460068AC
:104B700000F00200009000BF00BF00BF00200090C6
:104B80000846006840F0010008600846006800F030
:104B90000100009000BF00BF802001900220029021
:104BA00000200390032004900720059001A93A48B3
:104BB000FDF79CFD4FF40070019002200290002050
:104BC0000390032004900720059001A93348FDF7C6
:104BD0008DFD002205212520FDF71CFF2520FDF776
:104BE00005FF53E02E49206888424FD100BF0020C6
:104BF00000902848001F006840F480202549091FC4
:104C000008600846006800F48020009000BF00BFE4
:104C100000BF002000901F481438006840F00400D6
:104C20001C49143908600846006800F00400009030
:104C300000BF00BF4FF440600190022002900020AE
:104C40000390032004900720059001A91548FDF763
:104C50004DFD1548154908604FF00060486000217F
:104C600012488160C1604FF480610161002141619F
:104C70008161C16101624162FDF792FB08B1FCF7FD
:104C800089FA00BF0948E063846300BF06B010BD25
:104C9000001001404438024000040240000002407D
:104CA0000048004000080240286002409C1100209B
:104CB00070B504460D46164694F8420020280BD1E4
:104CC00005B10EB9012070BD00202063324629468F
:104CD000204601F045FEF6E70220F4E770B50446F1
:104CE0000D46164694F8420020280BD105B10EB9A6
:104CF000012070BD0020206332462946204601F085
:104D00009BFEF6E70220F4E770B5044619492068D7
:104D100088422CD11848007848B918480078A4284F
:104D200005D0012215491648FFF7D8FF70BD13487A
:104D30000178114802780078401C0F4B1870114818
:104D40008154184600781B280CD31B210D4804F011
:104D500087FB20B10B4D284605F092FE00BF0020D6
:104D600005490870012205490548FFF7B7FF00BF54
:104D7000DCE70000001001402C0000203300002080
:104D80000C110020D40A00207047704700BFFEE7D6
:104D900070B50446002055E093ED050A00EB400590
:104DA0002A4E06EB8505D5ED000A20EE200AD3ED4C
:104DB000060A00EB400506EB850595ED011A00EEAD
:104DC000810AD3ED070A00EB400506EB850595ED5A
:104DD000021A00EE810A1E4D05EB8005D5ED000A92
:104DE00030EE200A04EB800585ED000A93ED010A00
:104DF00000EB4005174E06EB8505D5ED000A20EEC9
:104E0000200AD3ED020A00EB400506EB850595ED7F
:104E1000011A00EE810AD3ED030A00EB400506EB10
:104E2000850595ED021A00EE810A0B4D05EB800514
:104E3000D5ED000A30EE200A01EB800585ED000A71
:104E4000451CE8B20328A7DB70BD000084000020E9
:104E50008C120020A80000209812002070B5064691
:104E60000C461546288888B9124890ED000A124869
:104E700080ED000A0F4890ED010A0F4880ED010A0D
:104E80000C4890ED020A0C4880ED020A2B460022E5
:104E90000A49094805F0B4FC074890ED000A84ED82
:104EA000000A90ED010A84ED010A90ED020A84EDFA
:104EB000020A70BD801200208C120020B412002063
:104EC00070B52DED048B06460C4621480088401C29
:104ED00000B21F49088094ED000A1E4880ED000AC8
:104EE00094ED010A80ED010A94ED020A80ED020AB8
:104EF000002528E0174800EB850090ED000A10EE31
:104F0000101A084607F048FE41EC190BB0EE490AAA
:104F1000F0EE690A04F0B0FCB0EE408AF0EE608A70
:104F20009FED0D0B53EC102B51EC180B07F001FB10
:104F300008D29FED0B0A074880ED020A80ED010AB6
:104F400080ED000A6D1C032DD4DBBDEC048B70BD1D
:104F5000CE000020801200200000000000388F40AA
:104F60000000000010B5AF48FBF7E4FEAD4BAE4AC1
:104F7000AE49AF48FFF70CFFAE480078A0BBAA4A85
:104F8000AA49AD48FBF754FCAC4B1A1F111FAA48A5
:104F900005F0C2FBA54890ED000AA94880ED000A83
:104FA000A84880ED000AA84880ED000A9F4890EDCF
:104FB000010AA34880ED010AA24880ED010AA24837
:104FC00080ED010A994890ED020A9D4880ED020AA1
:104FD0009C4880ED020A9C4880ED020A95480078C2
:104FE000401C944908701CE1FFE7964890ED000AC8
:104FF000954880ED000A924890ED000A914880EDB6
:10500000000A90ED000A9148D0ED000A20EE200A37
:105010008D48D0ED000A8D4890ED011A00EE810A0E
:105020008248D0ED000A894890ED021A00EE810A0C
:10503000834880ED000A834890ED010A824880EDA4
:10504000010A7F4890ED010A7E4880ED010A90ED4B
:10505000010A7E48D0ED000A20EE200A7A48D0ED01
:10506000010A7A4890ED011A00EE810A6F48D0EDEE
:10507000010A764890ED021A00EE810A704880ED30
:10508000010A704890ED020A6F4880ED020A6C48F0
:1050900090ED020A6B4880ED020A90ED020A6B481F
:1050A000D0ED000A20EE200A6748D0ED020A6748DA
:1050B00090ED011A00EE810A5C48D0ED020A6348C7
:1050C00090ED021A00EE810A5D4880ED020A564B0F
:1050D000024657499FED5E0A5748FBF721FD574BA3
:1050E0001A1F111F544805F017FB5A4890ED000A8B
:1050F00080ED030A5148083890ED000ADFED560AAA
:1051000020EE200A534880ED000A4C48083890ED04
:10511000010ADFED510A20EE200A4E4880ED010A17
:105120004648083890ED020ADFED4B0A20EE200ACF
:10513000484880ED020A90ED000AD0ED030A30EEF7
:10514000600A80ED040A90ED040ADFED440AB4EE33
:10515000E00AF1EE10FA08DD90ED050AF7EE000A1C
:1051600030EE600A80ED050A11E03A4890ED040A3D
:10517000DFED3B0AB4EEE00AF1EE10FA07D290ED53
:10518000050AF7EE000A30EE200A80ED050A3148E4
:1051900090ED000AD0ED050A9FED321A00EE810A6B
:1051A00080ED060A224890ED020ADFED2B0A20EE80
:1051B000200A284880ED090A1D4890ED010ADFED1C
:1051C000260A20EE200A234880ED080A184890EDB0
:1051D000000ADFED210A20EE200A1E4880ED070AB2
:1051E0002148007801281CD120480088C8B92048EF
:1051F00090ED000A1F4880ED000A1D4890ED010A5D
:105200001C4880ED010A1A4890ED020A194880ED09
:10521000020A16480088401C1449088002201249DE
:10522000087010BD34120020CC120020C0120020E3
:10523000B4120020D0000020A4120020E0120020B0
:10524000FC120020F0120020E4120020FCCF000825
:105250006F12833A58120020333365420000164320
:10526000000016C30000B44380000020D2000020DC
:10527000801200208C12002030B50B46002100BFA8
:1052800016E00A24B4EB107F05D9302404EB107427
:1052900003F8114005E0412404EB10740A3C03F8C4
:1052A0001140000100254C00641C1D554C1CE1B24E
:1052B0009142E6DB30BD000010B50F480F49086091
:1052C0000320486000210D488160C1604FF4002137
:1052D00001614FF4401141610021017601214176C5
:1052E00081760021C17601774177FCF7DBFC08B1BC
:1052F000FBF750FF10BD000000640040440F002089
:1053000010B50F480F4908600320486000210D4880
:105310008160C1604FF4002101614FF4401141618F
:10532000002101760121417681760021C176017745
:105330004177FCF7B7FC08B1FBF72CFF10BD00006C
:10534000006800406C0F002008B500BF00200090EE
:105350001A48006840F48000184908600846006850
:1053600000F48000009000BF00BF00BF002000904C
:105370000846006840F4001008600846006800F421
:105380000010009000BF00BF002205210C20FDF797
:1053900041FB0C20FDF72AFB002205213A20FDF7F6
:1053A00039FB3A20FDF722FB002205213B20FDF7C7
:1053B00031FB3B20FDF71AFB08BD000030380240EE
:1053C00000B595B01C2212490EA8FBF7BAF80021CF
:1053D0000EA805F025FB0F4908601C220C491C3162
:1053E00007A8FBF7AEF8002107A805F019FB0A494A
:1053F00008601C22064938316846FBF7A2F80021F4
:10540000684605F00DFB0549086015B000BD0000B9
:1054100084CF000834000020380000203C00002029
:1054200000B587B0142102A8FBF7BDF800BF00202B
:1054300001904248006840F0020040490860084678
:10544000006800F00200019000BF00BF00BF002014
:1054500001900846006840F00100086008460068B6
:1054600000F00100019000BF00BF00BF00200190CC
:105470000846006840F0080008600846006800F030
:105480000800019000BF00BF00BF00200190084647
:10549000006840F0040008600846006800F004005E
:1054A000019000BF00BF00BF0020019008460068C7
:1054B00040F0800008600846006800F0800001901D
:1054C00000BF00BF012210211D48FDF709FA01228B
:1054D00011461C48FDF704FA1020029001200390A9
:1054E00004900220059002A91548FDF7FFF830202E
:1054F00002904FF4881003900120049002A91248F2
:10550000FDF7F4F80120029003900490022005902A
:1055100002A90C48FDF7EAF8002205210A20FDF750
:1055200079FA0A20FDF762FA002205211720FDF71B
:1055300071FA1720FDF75AFA07B000BD3038024063
:1055400000000240000402400008024010B50F486D
:105550000F4908604FF48270486000210C48816058
:10556000C16002210161012141614902816138214B
:10557000C16100210162416281620A21C162FEF7BC
:10558000FBFC08B1FBF706FE10BD00000030014037
:10559000AC0F00201CB50020009001900E480F4970
:1055A000086042F2CF00486000210C48816040F260
:1055B000E731C16000218161FEF788FF08B1FBF788
:1055C000E9FD00200090019069460448FEF724FFA1
:1055D00008B1FBF7DFFD1CBD00100040C410002027
:1055E00010B50B480B4908604FF4E13048600021CA
:1055F00008488160C16001610C2141610021816125
:10560000C161FFF751FA08B1FBF7C4FD10BD0000FE
:10561000001001400C11002010B50A480A4908602A
:105620000A484860002108488160C16001610C217E
:10563000416100218161C161FFF736FA08B1FBF7D2
:10564000A9FD10BD0048004054110020A0860100B3
:1056500010B500220D490E4802F019F908B1FBF708
:1056600099FD0C490A4802F054FC08B1FBF792FD81
:105670000949074801F03EFD08B1FBF78BFD0448DE
:1056800002F04AFD08B1FBF785FD10BD8809002036
:1056900028560020FC090020D809002000BFFEE7A2
:1056A00000BFFEE710B50248FDF7D3FB10BD0000B8
:1056B000046B00202DE9F04704460D462668374666
:1056C000D6F8408007F5306000EB4510D0F8089020
:1056D000104880450BD909F40040B0F5004F06D1C1
:1056E0004FF4004107F5306000EB45108160204623
:1056F000FEF76AF80748804508D9A079012805D146
:1057000004F29C420121206803F0BEF90020BDE8AC
:10571000F08700000A30544F2DE9F04705460C464B
:10572000D5F800904E46D9F840A006F5306000EB61
:105730004410D0F80880A879012855D108F0080055
:1057400008280FD1434882450BD908F40040B0F532
:10575000004F7BD14FF4004106F5306000EB441060
:10576000816073E008F02000202806D1202106F592
:10577000306000EB4410816068E008F028000028E9
:1057800064D1344882450CD908F40040B0F5004F8C
:1057900007D14FF4004106F5306000EB4410816002
:1057A00054E004EBC40105F5157000EB810706F524
:1057B000306000EB4410396A0069C0F31200081A27
:1057C000786164B9386930B905F29C4201212868D2
:1057D00003F05AF903E07969F8680844F860E1B227
:1057E0002846FDF7ADF931E01B4882451BD108F48E
:1057F0000040B0F5004F07D14FF4004106F530608E
:1058000000EB4410816021E008F02000202805D141
:10581000202106F5306000EB44108160E1B228469B
:10582000FDF78EF912E06CB904EBC40105F51570B3
:1058300000EB8100006928B905F29C42002128682C
:1058400003F022F9E1B22846FDF77AF90020BDE81D
:10585000F08700000A30544F0A31544F2DE9F84FB9
:1058600007460E46D7F80090C84606EBC60107F17A
:10587000140000EB8104D4E90410884202D901200D
:10588000BDE8F88FD4E90401451AA068A84200D207
:10589000A568E81C4FEA900A17E0D4E90401451A0C
:1058A000A068A84200D2A568E81C4FEA900AB8791F
:1058B000ABB2F2B200904846E16803F0ADFDE0689B
:1058C0002844E06060692844606108F5106000EBDE
:1058D0004610806980B2504506D3D4E9041088424E
:1058E00002D220690028D8D1D4E9040188420ED818
:1058F00006F00F01012000FA01FB40F6340050F8D9
:10590000080020EA0B0040F6340141F808000020AE
:10591000B6E710B52DED0A8B0446B0EE408AB0EE26
:10592000419AF0EE619A51EC190B06F06FF9606341
:1059300084ED0E8A94ED100A10EE101A084607F056
:105940002BF9C4E9120194ED0D0AD4ED0E0A30EEE4
:10595000600A84ED100A94ED160AD4ED100A30EEB8
:10596000200A84ED160A94ED100A10EE101A08466B
:1059700007F012F941EC1B0B94ED001BB0EE410A4D
:10598000F0EE610A53EC102B06F034FC41EC1A0BDC
:1059900006F03CF9206194ED040AD4ED080AB4EE57
:1059A000E00AF1EE10FA02D294ED040A01E094ED5F
:1059B000080A84ED040A94ED040AD4ED080AF1EE15
:1059C000600AB4EEE00AF1EE10FA02DD94ED040A8A
:1059D00003E094ED080AB1EE400A84ED040A94ED68
:1059E000020AD4ED160A20EE200A84ED050A94ED91
:1059F000050AD4ED090AB4EEE00AF1EE10FA02D27B
:105A000094ED050A01E094ED090A84ED050A94ED90
:105A1000050AD4ED090AF1EE600AB4EEE00AF1EEEF
:105A200010FA02DD94ED050A03E094ED090AB1EEE7
:105A3000400A84ED050A94ED100A10EE101A08468B
:105A400007F0AAF841EC1C0B94ED121BB0EE410AD2
:105A5000F0EE610A53EC102B06F09CFD41EC1A0BA2
:105A600094ED030A10EE101A084607F095F841EC81
:105A70001B0B53EC1A2B06F0BDFBC4E9060194ED99
:105A80000A2BB0EE420AF0EE620A94ED062BB0EE5D
:105A9000421AF0EE621A53EC102B51EC110B06F087
:105AA0006DFB02D294ED060B01E094ED0A0B84ED40
:105AB000060B94ED0A1BB0EE410AF0EE610A51ECC0
:105AC000100B06F097F841EC1A0B94ED061BB0EEA4
:105AD000410AF0EE610A53EC102B06F04FFB02D2A4
